:040000005BEF00F0C2
:100008005082FACF3CF0FBCF3DF0D9CF3EF0DACFAB
:100018003FF0F3CF40F0F4CF41F0F6CF42F0F7CF06
:1000280043F0F8CF44F0F5CF45F0A0A61EEF00F05E
:1000380020EF00F035EF00F0A1A625EF00F027EF44
:1000480000F035EF00F002D833EF00F00500FA6E4B
:100058003150FD6E3250FE6EFF6AFA50120045EFC5
:1000680000F09DA63AEF00F03CEF00F045EF00F0FD
:100078009EA641EF00F043EF00F045EF00F027EFB8
:1000880000F045C0F5FF44C0F8FF43C0F7FF42C089
:10009800F6FF41C0F4FF40C0F3FF3FC0DAFF3EC0A7
:1000A800D9FF3DC0FBFF3CC0FAFF5092110085EF1D
:0200B8000CF04A
:1010000000BE1A5E1A6C1A3C10FA10B41A76140854
:101010001B001BF81AF01AE81AE01AD81AAA1AAC20
:101020001653797374656D20537461727465640D21
:0B1030000044617465203A200D0000B0
:10103C0025EC0DF00009D8B426EF08F028EF08F0E5
:10104C0062EF08F036EF08F084EC0DF07CEF08F05E
:10105C0080EC0DF07CEF08F078EC0DF07CEF08F0F4
:10106C0013C040F014C041F002D846EF08F0050060
:10107C00FA6E0750FD6E0850FE6EFF6AFA501200B1
:10108C00386E396A3950000AD8B44FEF08F032EF95
:10109C0008F03850010AD8B432EF08F0030AD8B47B
:1010AC002AEF08F0010AD8B42EEF08F0070AD8B4DA
:1010BC0032EF08F032EF08F024901EC0D9FF1FC0A9
:1010CC00DAFF1E4A1F2ADF5088EC0DF02006D8A04C
:1010DC00210620502110D8A476EF08F078EF08F004
:1010EC007BEF08F0060E7CEF08F0030E1200A3EC69
:1010FC000DF01EC0D9FF1FC0DAFFDF6E1E4A1F2A7B
:10110C002006D8A0210620502110D8B490EF08F06A
:10111C0092EF08F097EF08F08FEC0DF0050ECEEF84
:10112C0008F02486A2EF08F06CEC0DF0CEEF08F07E
:10113C0070EC0DF0CEEF08F00DC040F00EC041F099
:10114C0002D8B2EF08F00500FA6E0150FD6E0250A5
:10115C00FE6EFF6AFA501200376E386A3850000A79
:10116C00D8B4BBEF08F09EEF08F03750010AD8B4A2
:10117C009EEF08F0030AD8B49AEF08F0010AD8B42D
:10118C009AEF08F0070AD8B49EEF08F09EEF08F02B
:10119C00120005EC0DF0F28EF28CF28C210E466EE4
:1011AC00100E476E000E496E0F0E486EFFEC0BF0E2
:1011BC00080E0001796F050E7A6FA20E10EC0DF07F
:1011CC00850EE82EFED700F0080E0001796F060E92
:1011DC007A6FA60E10EC0DF0850EE82EFED700F0FF
:1011EC00080E0001796FA20ED5EC0CF0356E080ECE
:1011FC000001796FA60ED5EC0CF0346EEEEC0AF013
:10120C0020EE2BF0050EEBCFDBFFE806FCE21FEC2B
:10121C0009F09E0EC9EC0CF0336E000E0001766FD7
:10122C0033C077F0700E78EC0AF004EF09F05BEF46
:10123C0000F02A380F0B300F0001606F2A500F0B93
:10124C00300F616F2D0E626F29380F0B300F636FEB
:10125C0029500F0B300F646F2D0E656F28380F0B54
:10126C00300F666F28500F0B300F676F2F0E686FA3
:10127C0025380F0B300F696F25500F0B300F6A6F2D
:10128C002D0E6B6F26380F0B300F6C6F26500F0B1B
:10129C00300F6D6F2D0E6E6F27380F0B300F6F6F79
:1012AC0027500F0B300F706F310E466E100E476EBD
:1012BC00000E496E080E486EFFEC0BF0600E466E89
:1012CC00000E476E000E496E110E486EFFEC0BF0CF
:1012DC001200486E010E496E24B477EF09F079EFD5
:1012EC0009F0BBEF09F048C01DF02492248424902F
:1012FC000E0E226E010E1C6EF40E1B6E2486520E08
:10130C00016E1B0E026E000E0D6E000E0E6E520E56
:10131C00036E1B0E046E000E0F6E000E106E520E3E
:10132C00056E1B0E066E000E116E000E126E520E26
:10133C00076E1B0E086E000E136E000E146E4E0E12
:10134C00096E1B0E0A6E000E156E000E166E180E30
:10135C00466E1B0E476E50EC0DF09DEC0DF0A7EC9D
:10136C000CF095EC0DF0000E496E49501200000186
:10137C00776F000E0001786F000177516FEC09F068
:10138C000009D8B4CCEF09F0CEEF09F0C2EF09F0A8
:10139C00880E0001726F180E736F780E746F000E4A
:1013AC00756FE1EC0CF0760E466E000E476E000E7B
:1013BC00496E010E486E96EC0CF0000E0001726F37
:1013CC00000E736F000E746F000E756FEDEC0CF069
:1013DC0068EC0DF070EC0CF0E806D8B4F8EF09F0FE
:1013EC00FAEF09F0F0EF09F000017851120000015A
:1013FC00716F46504710D8B406EF0AF008EF0AF0A8
:10140C0023EF0AF000017151020D010EF324D96E85
:10141C00000EF420DA6E46C0DEFF47C0DDFF7151CE
:10142C00020D0D0EF324D96E000EF420DA6E48C0B6
:10143C00DEFF49C0DDFF3AEF0AF000017151020DE9
:10144C00010EF324D96E000EF420DA6E520EDE6E0D
:10145C001B0EDD6E7151020D0D0EF324D96E000EB4
:10146C00F420DA6EDE6ADD6A120024864BEF0AF095
:10147C007CEC0DF077EF0AF0A1EC0DF0030E77EF9A
:10148C000AF078EC0DF077EF0AF00DC040F00EC0CA
:10149C0041F002D85BEF0AF00500FA6E0150FD6EC8
:1014AC000250FE6EFF6AFA501200376E386A3850DE
:1014BC00000AD8B464EF0AF047EF0AF03750010A7B
:1014CC00D8B447EF0AF0030AD8B43EEF0AF0010A89
:1014DC00D8B43EEF0AF0070AD8B442EF0AF047EF4F
:1014EC000AF012000001786F000178516FEC09F0DE
:1014FC000009D8B484EF0AF086EF0AF07AEF0AF00C
:10150C00300E0001726F180E736F770E746F000E31
:10151C00756FE1EC0CF0760E466E000E476E000E09
:10152C00496E010E486E96EC0CF0000E0001726FC5
:10153C00000E736F000E746F000E756FEDEC0CF0F7
:10154C0068EC0DF070EC0CF0E806D8B4B0EF0AF0D3
:10155C00B2EF0AF0A8EF0AF012003B6E37503810C9
:10156C00D8B4BBEF0AF0BDEF0AF0D7EF0AF03B504E
:10157C00020D010EF324D96E000EF420DA6E37C082
:10158C00DEFF38C0DDFF3B50020D0D0EF324D96E8B
:10159C00000EF420DA6E39C0DEFF3AC0DDFFEDEF4D
:1015AC000AF03B50020D010EF324D96E000EF4200C
:1015BC00DA6E520EDE6E1B0EDD6E3B50020D0D0E02
:1015CC00F324D96E000EF420DA6EDE6ADD6A1200A6
:1015DC00000E0001766FD00EBDEC09F0276E010EE7
:1015EC000001766FD00EBDEC09F0266E020E0001E4
:1015FC00766FD00EBDEC09F0256E040E0001766FEF
:10160C00D00EBDEC09F02A6E050E0001766FD00EDF
:10161C00BDEC09F0296E060E0001766FD00EBDEC04
:10162C0009F0286E20EE25F000EE79F0050EDBCFE8
:10163C00EBFFE806FCE212009FEC0DF024A029EF72
:10164C000BF02BEF0BF037EF0BF025EC0DF0000946
:10165C00D8B433EF0BF035EF0BF037EF0BF00F0E78
:10166C00226E2250020D010EF324F66E100EF420A1
:10167C00F76EF86A000EF8220900F5CF3AF009006F
:10168C00F5CF3BF002D854EF0BF00500FA6E3A5050
:10169C00FD6E3B50FE6EFF6AFA501200226E120075
:1016AC002490020E236E63EF0BF07CEC0DF087EFB1
:1016BC000BF078EC0DF087EF0BF011C040F012C07E
:1016CC0041F002D873EF0BF00500FA6E0550FD6E79
:1016DC000650FE6EFF6AFA501200376E386A3850A8
:1016EC00000AD8B47CEF0BF05FEF0BF03750020A16
:1016FC00D8B45BEF0BF0010AD8B45BEF0BF05FEFE3
:10170C000BF0120020EE02F04050D9264150DA22A4
:10171C00DECF37F0DDCF38F040C0D9FF41C0DAFF63
:10172C00DECF39F0DDCF3AF0B8EC0CF0000E3C6EA9
:10173C00000E3D6E000E3E6E000E3F6EF9EC0CF08E
:10174C00020E1200080EB86E900EAB6E240EAC6E2C
:10175C00A00EAF6E010EB06E000E466E000E476E00
:10176C0046EC0DF0000E466E000E476E41EC0DF08F
:10177C00000E466E000E476E4BEC0DF0000E366EF2
:10178C001200466E010E476E24B2CFEF0BF0D1EF74
:10179C000BF0E4EF0BF02482000E476E4650D8B4E9
:1017AC00DAEF0BF0DCEF0BF0E0EF0BF0010E226E3A
:1017BC00E2EF0BF0020E226E97EC0DF04750120088
:1017CC00000E8D6E000E8C6E000E896E000E8A6EF1
:1017DC00000E8B6E070E966E92689368BF0E946E19
:1017EC00FE0E956E7E681F0E7F6E000E7C6EF18E67
:1017FC001200000E0001726F000E716F000E726FFE
:10180C00000E716F0CEF0CF0714B722B4850715D28
:10181C0049507259D8A015EF0CF017EF0CF00AEFE5
:10182C000CF0120040C037F041C038F0000E3A6E98
:10183C00010E396EB8EC0CF0000E3C6E000E3D6ED5
:10184C00000E3E6E000E3F6EF9EC0CF0040E120012
:10185C0040C037F041C038F0000E3A6E020E396EBF
:10186C00B8EC0CF0000E3C6E000E3D6E000E3E6EA1
:10187C00000E3F6EF9EC0CF0020E120040C037F077
:10188C0041C038F0000E3A6E010E396EB8EC0CF017
:10189C00000E3C6E000E3D6E000E3E6E000E3F6E56
:1018AC00F9EC0CF0020E120040C037F041C038F0D9
:1018BC00000E3A6E020E396EB8EC0CF0000E3C6E57
:1018CC00000E3D6E000E3E6E000E3F6EF9EC0CF0FD
:1018DC00040E1200010E466E24B277EF0CF079EF75
:1018EC000CF083EF0CF024941D689DEC0DF099EC3A
:1018FC000DF09BEC0DF023C046F04650120000EEAC
:10190C0060F0110EEE6AE806FDE100EE01F0360E15
:10191C00EE6AE806FDE1509050920001CFEF08F01E
:10192C0024A69BEF0CF09DEF0CF0A6EF0CF046C03C
:10193C001EF047C01FF048C020F049C021F024968B
:10194C001200C6BAACEF0CF0AEEF0CF0B7EF0CF027
:10195C00800EC76E080EC66E000EC56E270EC86EC2
:10196C00C68A120024A6BDEF0CF0BFEF0CF0C8EF36
:10197C000CF037C01EF038C01FF039C020F03AC050
:10198C0021F0249612000001796F000E0001766F91
:10199C007951BDEC09F000017A6F7A511200000107
:1019AC007A6F79C076F000017A51BDEC09F0000134
:1019BC007B6F7B51120072C046F073C047F074C04D
:1019CC0048F075C049F0000EFDEC09F0120072C031
:1019DC0046F073C047F074C048F075C049F0020E71
:1019EC00FDEC09F012003CC037F03DC038F03EC0B1
:1019FC0039F03FC03AF0000EB3EC0AF0120064EC80
:101A0C000DF01BEC0DF0E6EC0BF03CEC0DF0A8EC43
:101A1C000BF0120000017B6F79C076F07AC077F082
:101A2C0000017B5178EC0AF01200800EC76E080E94
:101A3C00C66E000EC56E270EC86EC69A1200C5BCC7
:101A4C002AEF0DF02DEF0DF0010E2EEF0DF0000E24
:101A5C00120024801D50010988EC0DF0050E1200B7
:101A6C0024801D5088EC0DF0030E1200300ED36E46
:101A7C00000E9B6E120046C04CF047C04DF0120099
:101A8C0046C04EF047C04FF0120046C04AF047C067
:101A9C004BF0120046C031F047C032F012002492D5
:101AAC00000E236E0E0E12002490A5EC0DF0040E09
:101ABC0012002492000E236E0E0E1200D08EA286FF
:101ACC009F861200000EC7EC0BF0120092EC0DF08A
:101ADC00090E120092EC0DF00A0E12008FEC0DF0B4
:101AEC00050E1200ABEC0DF0000E1200ADEC0DF07B
:101AFC00010E1200ADEC0DF0020E1200ADEC0DF06B
:101B0C00010E1200376E37C0C9FF120022EC0BF029
:101B1C001200C59AC5881200C58AC58812009D8618
:101B2C001200C58012009D961200C69A12009E9655
:101B3C0012009E9612009E861200C9501200C58695
:101B4C001200050E1200010E1200C5841200C5828F
:021B5C00120075
:020000040020DA
:08000000FFFFFFFFFFFFFFFF00
:020000040030CA
:0E000000FF021F1EFF8B85FF0FC00FE00F4099
:00000001FF
